{
  "abi": [
    {
      "inputs": [
        {
          "internalType": "uint256",
          "name": "len",
          "type": "uint256"
        }
      ],
      "name": "Log2",
      "outputs": [
        {
          "internalType": "uint256",
          "name": "",
          "type": "uint256"
        }
      ],
      "stateMutability": "pure",
      "type": "function"
    },
    {
      "inputs": [
        {
          "internalType": "int256[8]",
          "name": "real_part",
          "type": "int256[8]"
        },
        {
          "internalType": "int256[8]",
          "name": "complex_part",
          "type": "int256[8]"
        }
      ],
      "name": "fft",
      "outputs": [
        {
          "internalType": "int256[8]",
          "name": "",
          "type": "int256[8]"
        },
        {
          "internalType": "int256[8]",
          "name": "",
          "type": "int256[8]"
        }
      ],
      "stateMutability": "view",
      "type": "function"
    }
  ],
  "bytecode": {
    "object": "0x6080806040523461002257672b992ddfa23249d6600055610c2290816100288239f35b600080fdfe6080604052600436101561001257600080fd5b6000803560e01c908163624fb00c1461003a575063dc00e8181461003557600080fd5b6101a1565b34610074576020366003190112610074576004355b6001808214610069571c9061006390610551565b9061004f565b602083604051908152f35b80fd5b634e487b7160e01b600052604160045260246000fd5b60405190610440820182811067ffffffffffffffff8211176100ae57604052565b610077565b60405190610100820182811067ffffffffffffffff8211176100ae57604052565b8060231215610112576100e56100b3565b9081610104918211610112576004905b8282106101025750505090565b81358152602091820191016100f5565b600080fd5b806101231215610112576101296100b3565b908161020491821161011257610104905b8282106101475750505090565b813581526020918201910161013a565b6000915b6008831061016857505050565b60019082518152602080910192019201919061015b565b9161010061019f92949361019881610200810197610157565b0190610157565b565b3461011257610200366003190112610112576101bc366100d4565b6101c536610117565b906101ce61058a565b506101d761058a565b50600080546008939060031c906102086102036101fd6715cc96efd11924eb8501610b50565b93610b50565b61059b565b60019586811115610436576102318161025d92981c9461025861025261023f61023184806105bd565b670de0b6b3a7640000900590565b61024c61023188806105bd565b906105e0565b946105ac565b6105bd565b9560028414610420575b670de0b6b3a7640000859186925b86841061028757505050509194610208565b848a84865b600881106102e65750610231836102ce6102316102e097956102c86102bb6102316102da9a6102d4999e6105bd565b61024c610231848b6105bd565b9a6105bd565b936105bd565b90610634565b93610551565b92610275565b92505050826102f58983610600565b808c610301858261060d565b519161030c9161060d565b51610316916105e0565b8c82808c610324888261060d565b519161032f9161060d565b51610339916105e0565b91610344878261060d565b5161034f838361060d565b5161035991610634565b610363888361060d565b52868d610370828261060d565b5161037b858361060d565b5161038591610634565b9161038f9161060d565b5261039a848b6105bd565b670de0b6b3a764000090056103af848a6105bd565b670de0b6b3a764000090056103c3916105e0565b916103cd9161060d565b526103d890886105bd565b670de0b6b3a76400009005906103ee90866105bd565b670de0b6b3a7640000900561040291610634565b9061040d908a61060d565b5261041791610600565b8a84879261028c565b61043164e8d4a510008305156105f9565b610267565b848387610441610565565b925b6008811061045f575061045b6040519283928361017f565b0390f35b6104d790600163555555558263aaaaaaaa81841b16921c1617633333333360029163cccccccc81841b16921c1617630f0f0f0f60049163f0f0f0f081841b16921c161762ff00ff63ff00ff008260081b169160081c161760109080821b911c176104c886610650565b1c8181116104dc575b50610551565b610443565b6105346104e9838661060d565b51916104f5848861060d565b5192610501828861060d565b5161050c868961060d565b52610517828961060d565b51610522868a61060d565b5261052d828861060d565b528661060d565b52856104d1565b634e487b7160e01b600052601160045260246000fd5b60001981146105605760010190565b61053b565b600060085b6001908181146105855761057f911c91610551565b9061056a565b505090565b6105926100b3565b90610100368337565b600160ff1b81146105605760000390565b908160011b91600283050361056057565b818102929160008212600160ff1b82141661056057818405149015171561056057565b8181039291600013801582851316918412161761056057565b1561011257565b9190820180921161056057565b90600881101561061e5760051b0190565b634e487b7160e01b600052603260045260246000fd5b9190916000838201938412911290801582169115161761056057565b602003906020821161056057565b61066661008d565b61040481527ac90f8801921d20025b26d703242abf03ed26e604b6195d057f003560208201527f0647d97c0710a34507d95b9e08a2009a096a90490a3308bc0afb68050bc3ac3560408201527f0c8bd35e0d53db920e1bc2e40ee387660fab272b1072a0481139f0cf120116d560608201527f12c8106e138edbb1145576b1151bdf8515e2144416a81305176dd9de183366e860808201527f18f8b83c19bdcbf31a82a0251b4732ef1c0b826a1ccf8cb31d934fe51e56ca1e60a08201527f1f19f97b1fdcdc1b209f701c2161b39f2223a4c522e541af23a6887e2467775760c08201527f25280c5d25e845b626a8218527679df42826b92828e5714a29a3c4852a61b10160e08201527f2b1f34eb2bdc4e6f2c98fbba2d553afb2e110a622ecc681e2f8752623041c7606101008201527f30fbc54d31b54a5d326e54c73326e2c233def2873496824f354d905636041ad96101208201527f36ba2013376f9e46382493b038d8fe93398cdd323a402dd13af2eeb73ba51e296101408201527f3c56ba703d07c1d53db832a53e680b2c3f1749b73fc5ec974073f21d4121589a6101608201527f41ce1e64427a41d04325c13543d09aec447acd50452456bc45cd358f467568276101808201527f471cece647c3c22e4869e664490f57ee49b415334a581c9d4afb6c974b9e038f6101a08201527f4c3fdff34ce100344d8162c34e2106174ebfe8a44f5e08e24ffb654c5097fc5e6101c08201527f5133cc9451ced46e5269126e53028517539b2aef5433027d54ca0a4a556040e26101e08201527f55f5a4d2568a34a9571deef957b0d2555842dd5458d40e8c5964649759f3de126102008201527f5a8279995b1035ce5b9d11535c290acc5cb420df5d3e52365dc79d7b5e50015d6102208201527f5ed77c895f5e0db25fe3b38d60686cce60ec382f616f146b61f1003e6271fa686102408201527f62f201ac637114cc63ef328f646c59bf64e889256563bf9165ddfbd266573cbb6102608201527f66cf811f6746c7d767bd0fbc683257aa68a69e806919e31f698c246b69fd614a6102808201527f6a6d98a36adcc9646b4af2786bb812d06c24295f6c8f351b6cf934fb6d6227f96102a08201527f6dca0d146e30e3496e96a99c6efb5f116f5f02b16fc1938470231099708378fe6102c08201527f70e2cbc571410804719e2cd171fa394872552c8472af05a67307c3cf735f66256102e08201527f73b5ebd0740b53fa745f9dd074b2c8837504d3447555bd4b75a585ce75f42c0a6103008201527f7641af3c768e0ea576d9498877235f2c776c4eda77b417df77fab988784033286103208201527f7884841378c7aba17909a92c794a7c11798a23b079c89f6d7a05eeac7a4210d86103408201527f7a7d055a7ab6cba37aef63237b26cb4e7b5d039d7b920b887bc5e28f7bf8882f6103608201527f7c29fbed7c5a3d4f7c894bdd7cb727237ce3ceb17d0f42177d3980eb7d628ac56103808201527f7d8a5f3f7db0fdf77dd6668e7dfa98a77e1d93e97e3f57fe7e5fe4927e7f39566103a08201527f7e9d55fb7eba3a387ed5e5c57ef0585f7f0991c37f2191b37f3857f57f4de4506103c08201527f7f62368e7f754e7f7f872bf27f97cebc7fa736b37fb563b27fc255957fce0c3d6103e08201527f7fd8878d7fe1c76a7fe9cbbf7ff094777ff621817ffa72d07ffd88597fff6215610400820152637fffffff60e01b61042082015290565b670de0b6b3a7640000637fffffff916757325bbf446493ac809106601e1b0460ff8160141c166310000000821615908115610be4575b6002610b9061065e565b910160021b015163ffffffff808260201c16911661ffff8460041c168282030260101c92600014610bdc5750015b6320000000819216610bd1575b50020590565b905060000338610bcb565b905003610bbe565b60ff03610b8656fea26469706673582212204981f6ab94054233d71323b285a0c3c92a1bddedd579438473866f74752b37f764736f6c63430008150033",
    "linkReferences": {}
  },
  "methodIdentifiers": {
    "Log2(uint256)": "624fb00c",
    "fft(int256[8],int256[8])": "dc00e818"
  },
  "id": 20
}